:060000000A128A11FC2F18
:100F0A00831603138801FF308312031388008316A4
:100F1A00031306080338860008000A128A11852777
:100F2A000A128A110130F2000030F3005030F0004A
:100F3A00C330F100831203138618A42FA52FD72FCD
:100F4A0072037304031DAA2FAB2FD72FF201F301EB
:100F5A0088090030F7000030F6000030F500003054
:100F6A00F4000130F407003003180130F5070030AF
:100F7A0003180130F607003003180130F707770825
:100F8A00031DD62F7608031DD62FC3307502031D05
:100F9A00D22F50307402031DD22F031CD52FD62F07
:100FAA00B62FDF2F861CDA2FDB2FDF2F0130F2005E
:100FBA000030F300831203130618E42FE52F9F2F46
:100FCA00FF30F0070318F10AFF30F107700A031D1A
:100FDA00F22F710A031DF22FF32F9F2F5030F000CA
:100FEA00C330F10088099F2F0A128A110028830151
:060FFA000A128A11922F79
:08400000FF3FFF3FFF3FFF3FC0
:02400E00FB3F76
:00000001FF
