:060000000A128A11FC2F18
:100EEE00831603138801FF308312031388008316C1
:100EFE00031306080338860008000A128A117727A2
:100F0E000A128A110130F0000030F100831203132F
:100F1E000618922F932FBC2F88090030F500003051
:100F2E00F4000030F3000030F2000130F207003020
:100F3E0003180130F307003003180130F4070030B6
:100F4E0003180130F5077508031DBC2F7408031D27
:100F5E00BC2FC3307302031DB82F50307202031D15
:100F6E00B82F031CBB2FBC2F9C2F83120313861884
:100F7E00C12FC22FF42F70037104031DC72FC82F6A
:100F8E00F42FF001F10188090030F9000030F8006B
:100F9E000030F7000030F6000130F607003003187D
:100FAE000130F707003003180130F807003003183E
:100FBE000130F9077908031DF32F7808031DF32F6D
:100FCE00C3307702031DEF2F50307602031DEF2F33
:100FDE00031CF22FF32FD32F8D2F861CF72FF82FF4
:100FEE008D2F892F0A128A11002883010A128A1165
:020FFE00842F3E
:08400000FF3FFF3FFF3FFF3FC0
:02400E00FB3F76
:00000001FF
