:060000000A128A11FC2F18
:100EE60083160313880183120313880183160313E1
:100EF60005080339850008000A128A1173270A12A9
:100F06008A11831203130508033904388500063055
:100F16008800F001F1010130F0070318F10A0030F2
:100F2600F1077108803AFF0080307F02031D9D2F74
:100F360064307002031CA02FA12F8E2F831203137F
:100F460005080339083885005B308800F201F30193
:100F56000130F2070318F30A0030F3077308803AEA
:100F6600FF0080307F02031DBA2F64307202031C1B
:100F7600BD2FBE2FAB2F831203130508033910387C
:100F860085004F308800F401F5010130F40703189D
:100F9600F50A0030F5077508803AFF0080307F02B9
:100FA600031DD72F64307402031CDA2FDB2FC82FE2
:100FB600831203130508033920388500663088003C
:100FC600F601F7010130F6070318F70A0030F707B4
:100FD6007708803AFF0080307F02031DF42F6430CB
:100FE6007602031CF72FF82FE52F842F0A128A1199
:0A0FF600002883010A128A117F2FE0
:08400000FF3FFF3FFF3FFF3FC0
:02400E00FB3F76
:00000001FF
