:060000000A128A11FC2F18
:100F7000831603138801FF3083120313880083163E
:100F80000313061408000A128A11B8270A128A11DC
:100F9000831203130618CD2FCE2FC82F88090030D7
:100FA000F3000030F2000030F1000030F0000130BA
:100FB000F007003003180130F1070030031801304A
:100FC000F207003003180130F3077308031DF82FF0
:100FD00001307202031DF42F86307102031DF42FBD
:100FE000A0307002031DF42F031CF72FF82FD72F0A
:100FF000C82F0A128A11002883010A128A11C32FEE
:08400000FF3FFF3FFF3FFF3FC0
:02400E00FB3F76
:00000001FF
