:060000000A128A11FC2F18
:100F78008316031386018801831203138601FF3049
:100F8800880008000A128A11BC270A128A118312E3
:100F98000313860988090030F3000030F20000309E
:100FA800F1000030F0000130F00700300318013084
:100FB800F107003003180130F20700300318013040
:100FC800F3077308031DF82F01307202031DF42F75
:100FD80086307102031DF42FA0307002031DF42F18
:100FE800031CF72FF82FD72FCB2F0A128A110028AE
:080FF80083010A128A11C62FC1
:08400000FF3FFF3FFF3FFF3FC0
:02400E00FB3F76
:00000001FF
