:060000000A128A110C280F
:10000800FE00030EF0000A08F1000A128A11A02867
:100018000A128A110F2883010A128A1113280A1258
:100028008A118F200A128A11F201F3017308803AAB
:10003800FF0080307F02031D232805307202031859
:100048002628272888288312031386182C282D2869
:100058005828023088060030F7000030F6000030DB
:10006800F5000030F4000130F407003003180130C7
:10007800F507003003180130F60700300318013087
:10008800F7077708031D582801307602031D542806
:1000980086307502031D5428A0307402031D5428AD
:1000A800031C5728582837280130F2070318F30A89
:1000B8000030F3070030FB000030FA000030F90090
:1000C8000030F8000130F807003003180130F90754
:1000D800003003180130FA07003003180130FB071D
:1000E8007B08031D872801307A02031D8328863088
:1000F8007902031D8328A0307802031D8328031C7E
:100108008628872866281A28F201F30163001A282E
:100118000A128A110C288316031388018312031309
:10012800880103308316031386008B170A128A117D
:10013800B0200A128A1108008B1CA328A428A92819
:1001480001308312031388068B1071088A00700E21
:100158008300FE0E7E0E09000B168316031301138F
:040168008B100800F0
:08400000FF3FFF3FFF3FFF3FC0
:02400E00FB3F76
:00000001FF
