:060000000A128A11FC2F18
:100E8A008316031388018601FF3083120313860039
:100E9A00880108000A128A1145270A128A110030AD
:100EAA00F5000030F4000030F3000030F2000130A9
:100EBA00F207003003180130F3070030031801303D
:100ECA00F407003003180130F5077508031D7D2F5C
:100EDA0001307402031D792F86307302031D792FA6
:100EEA00A0307202031D792F031C7C2F7D2F5C2FEB
:100EFA00831203130608FE3986000030F900003019
:100F0A00F8000030F7000030F6000130F607003034
:100F1A0003180130F707003003180130F8070030D2
:100F2A0003180130F9077908031DAB2F0130780245
:100F3A00031DA72F86307702031DA72FA030760244
:100F4A00031DA72F031CAA2FAB2F8A2FF001F10133
:100F5A00EB2F031483120313860D0314880D01303B
:100F6A00F0070318F10A0030F1070030FD000030E5
:100F7A00FC000030FB000030FA000130FA070030B4
:100F8A0003180130FB07003003180130FC0700305A
:100F9A0003180130FD077D08031DE32F01307C0291
:100FAA00031DDF2F86307B02031DDF2FA0307A025C
:100FBA00031DDF2F031CE22FE32FC22F831203131B
:100FCA00060A031DE92FEA2FEB2F86017108803AE2
:100FDA00FF0080307F02031DF42F08307002031CCB
:100FEA00F72FF82FAE2FAB2F0A128A110028830190
:060FFA000A128A114F2FBC
:08400000FF3FFF3FFF3FFF3FC0
:02400E00FB3F76
:00000001FF
