:100000000A128A11FC2F00308A000408840A820731
:100010000034683465346C346C346F342034773495
:100020006F3472346C34643400342E342E342E34F5
:060030002E342E340034D2
:100E1C00831603138801891009110A128A11B52748
:100E2C000A128A110800F5007408F00000300A124A
:100E3C008A112B270A128A117508F00001300A1248
:100E4C008A112B270A128A110800F30073182F2F0E
:100E5C00332F831203130915362F83120313091131
:100E6C00700888008914A630F100F10B3B2F0000AC
:100E7C008312031389101B30F2009E30F100F10B2A
:100E8C00452FF20B452F00000800F5007408F00008
:100E9C0000300A128A112B270A128A11672F750843
:100EAC0084000A128A1103200A128A11F000013000
:100EBC000A128A112B270A128A110130FF007F08AF
:100ECC00F507750884000A128A1103200A128A1188
:100EDC00003A031D722F732F552F08000A128A1126
:100EEC000E270A128A118030F40041300A128A113E
:100EFC0019270A128A118130F40042300A128A1121
:100F0C0019270A128A118230F40043300A128A110E
:100F1C0019270A128A118330F40064300A128A11DC
:100F2C0019270A128A118430F4000D300A128A1122
:100F3C004B270A128A118E30F4007A300A128A1169
:100F4C0019270A128A11C030F40001300A128A11D2
:100F5C004B270A128A11792F0A128A110028313074
:100F6C00F400F40BB72FBA2F3330F00000300A1214
:100F7C008A112B270A128A111B30F5009E30F400BF
:100F8C00F40BC62FF50BC62F00003330F0000030E9
:100F9C000A128A112B270A128A11A630F400F40BBC
:100FAC00D52F00003330F00000300A128A112B27A5
:100FBC000A128A11E12FE22F00003830F0000030C5
:100FCC000A128A112B270A128A11F001F00A00303A
:100FDC000A128A112B270A128A110C30F0000030E9
:100FEC000A128A112B270A128A11080083010A128D
:040FFC008A11742FB3
:08400000FF3FFF3FFF3FFF3FC0
:02400E00FB3F76
:00000001FF
